{
  "contractName": "EtherWallet",
  "abi": [
    {
      "inputs": [],
      "stateMutability": "nonpayable",
      "type": "constructor"
    },
    {
      "inputs": [],
      "name": "owner",
      "outputs": [
        {
          "internalType": "address payable",
          "name": "",
          "type": "address"
        }
      ],
      "stateMutability": "view",
      "type": "function"
    },
    {
      "stateMutability": "payable",
      "type": "receive"
    },
    {
      "inputs": [
        {
          "internalType": "uint256",
          "name": "_amount",
          "type": "uint256"
        }
      ],
      "name": "withdraw",
      "outputs": [],
      "stateMutability": "nonpayable",
      "type": "function"
    },
    {
      "inputs": [],
      "name": "getBalance",
      "outputs": [
        {
          "internalType": "uint256",
          "name": "",
          "type": "uint256"
        }
      ],
      "stateMutability": "view",
      "type": "function"
    },
    {
      "inputs": [
        {
          "internalType": "address",
          "name": "_address",
          "type": "address"
        },
        {
          "internalType": "uint256",
          "name": "_amount",
          "type": "uint256"
        }
      ],
      "name": "transfer",
      "outputs": [],
      "stateMutability": "nonpayable",
      "type": "function"
    },
    {
      "inputs": [
        {
          "internalType": "address",
          "name": "_address",
          "type": "address"
        }
      ],
      "name": "getBalanceOfAccount",
      "outputs": [
        {
          "internalType": "uint256",
          "name": "",
          "type": "uint256"
        }
      ],
      "stateMutability": "view",
      "type": "function"
    }
  ],
  "bytecode": "0x608060405234801561001057600080fd5b50336000806101000a81548173ffffffffffffffffffffffffffffffffffffffff021916908373ffffffffffffffffffffffffffffffffffffffff16021790555061061b806100606000396000f3fe60806040526004361061004e5760003560e01c806312065fe01461005a5780632e1a7d4d146100855780638da5cb5b146100ae578063936710bf146100d9578063a9059cbb1461011657610055565b3661005557005b600080fd5b34801561006657600080fd5b5061006f61013f565b60405161007c919061030a565b60405180910390f35b34801561009157600080fd5b506100ac60048036038101906100a79190610356565b610147565b005b3480156100ba57600080fd5b506100c361021f565b6040516100d091906103c4565b60405180910390f35b3480156100e557600080fd5b5061010060048036038101906100fb919061041d565b610243565b60405161010d919061030a565b60405180910390f35b34801561012257600080fd5b5061013d6004803603810190610138919061044a565b610264565b005b600047905090565b60008054906101000a900473ffffffffffffffffffffffffffffffffffffffff1673ffffffffffffffffffffffffffffffffffffffff163373ffffffffffffffffffffffffffffffffffffffff16146101d5576040517f08c379a00000000000000000000000000000000000000000000000000000000081526004016101cc9061050d565b60405180910390fd5b3373ffffffffffffffffffffffffffffffffffffffff166108fc829081150290604051600060405180830381858888f1935050505015801561021b573d6000803e3d6000fd5b5050565b60008054906101000a900473ffffffffffffffffffffffffffffffffffffffff1681565b60008173ffffffffffffffffffffffffffffffffffffffff16319050919050565b8047116102a6576040517f08c379a000000000000000000000000000000000000000000000000000000000815260040161029d906105c5565b60405180910390fd5b8173ffffffffffffffffffffffffffffffffffffffff166108fc829081150290604051600060405180830381858888f193505050501580156102ec573d6000803e3d6000fd5b505050565b6000819050919050565b610304816102f1565b82525050565b600060208201905061031f60008301846102fb565b92915050565b600080fd5b610333816102f1565b811461033e57600080fd5b50565b6000813590506103508161032a565b92915050565b60006020828403121561036c5761036b610325565b5b600061037a84828501610341565b91505092915050565b600073ffffffffffffffffffffffffffffffffffffffff82169050919050565b60006103ae82610383565b9050919050565b6103be816103a3565b82525050565b60006020820190506103d960008301846103b5565b92915050565b60006103ea82610383565b9050919050565b6103fa816103df565b811461040557600080fd5b50565b600081359050610417816103f1565b92915050565b60006020828403121561043357610432610325565b5b600061044184828501610408565b91505092915050565b6000806040838503121561046157610460610325565b5b600061046f85828601610408565b925050602061048085828601610341565b9150509250929050565b600082825260208201905092915050565b7f54686520506572736f6e2063616c6c696e6720746869732046756e6374696f6e60008201527f2073686f756c6420626520746865204f776e6572206f6620436f6e7472616374602082015250565b60006104f760408361048a565b91506105028261049b565b604082019050919050565b60006020820190508181036000830152610526816104ea565b9050919050565b7f54686520416d6f756e7420796f7520656e7465726564206973204d6f7265207460008201527f68616e20796f757220436f6e74726163742057616c6c657427732042616c616e60208201527f6365000000000000000000000000000000000000000000000000000000000000604082015250565b60006105af60428361048a565b91506105ba8261052d565b606082019050919050565b600060208201905081810360008301526105de816105a2565b905091905056fea264697066735822122013fccc9f2782f4094a6dc8e8f5e80502a51ea86c4eb91cb0247b97029e490c8764736f6c63430008110033",
  "immutableReferences": {},
  "source": "// SPDX-License-Identifier: GPL-3.0\n\npragma solidity >=0.8.7;\n\ncontract EtherWallet {\n    address payable public owner;\n\n    constructor() {\n        owner = payable(msg.sender);\n    }\n    receive() external payable {}\n    modifier onlyOwner() {\n        require(\n            msg.sender == owner,\n            \"The Person calling this Function should be the Owner of Contract\"\n        );\n        _;\n    }\n\n    function withdraw(uint256 _amount) external onlyOwner {\n        payable(msg.sender).transfer(_amount);\n    }\n\n    function getBalance() external view returns (uint256) {\n        return address(this).balance;\n    }\n\n    function transfer(address _address, uint256 _amount) external {\n        require(\n            address(this).balance > _amount,\n            \"The Amount you entered is More than your Contract Wallet's Balance\"\n        );\n        payable(_address).transfer(_amount);\n    }\n\n    function getBalanceOfAccount(address _address)\n        external\n        view\n        returns (uint256)\n    {\n        return address(_address).balance;\n    }\n}\n",
  "sourcePath": "/home/ctp/Desktop/blockchain/solidity/truffle/contracts/wallet.sol",
  "compiler": {
    "name": "solc",
    "version": "0.8.17+commit.8df45f5f.Emscripten.clang"
  },
  "schemaVersion": "3.4.11",
  "updatedAt": "2023-02-11T23:49:57.000Z",
  "devdoc": {
    "kind": "dev",
    "methods": {},
    "version": 1
  },
  "userdoc": {
    "kind": "user",
    "methods": {},
    "version": 1
  }
}