{
  "contractName": "Todos",
  "abi": [
    {
      "inputs": [
        {
          "internalType": "uint256",
          "name": "",
          "type": "uint256"
        }
      ],
      "name": "todos",
      "outputs": [
        {
          "internalType": "string",
          "name": "text",
          "type": "string"
        },
        {
          "internalType": "bool",
          "name": "completed",
          "type": "bool"
        }
      ],
      "stateMutability": "view",
      "type": "function"
    },
    {
      "inputs": [
        {
          "internalType": "string",
          "name": "_text",
          "type": "string"
        }
      ],
      "name": "create",
      "outputs": [],
      "stateMutability": "nonpayable",
      "type": "function"
    },
    {
      "inputs": [
        {
          "internalType": "uint256",
          "name": "_index",
          "type": "uint256"
        }
      ],
      "name": "get",
      "outputs": [
        {
          "internalType": "string",
          "name": "text",
          "type": "string"
        },
        {
          "internalType": "bool",
          "name": "complted",
          "type": "bool"
        }
      ],
      "stateMutability": "view",
      "type": "function"
    },
    {
      "inputs": [
        {
          "internalType": "uint256",
          "name": "_index",
          "type": "uint256"
        },
        {
          "internalType": "string",
          "name": "_text",
          "type": "string"
        }
      ],
      "name": "update",
      "outputs": [],
      "stateMutability": "nonpayable",
      "type": "function"
    },
    {
      "inputs": [
        {
          "internalType": "uint256",
          "name": "_index",
          "type": "uint256"
        }
      ],
      "name": "toggleComplete",
      "outputs": [],
      "stateMutability": "nonpayable",
      "type": "function"
    },
    {
      "inputs": [],
      "name": "getAll",
      "outputs": [
        {
          "components": [
            {
              "internalType": "string",
              "name": "text",
              "type": "string"
            },
            {
              "internalType": "bool",
              "name": "completed",
              "type": "bool"
            }
          ],
          "internalType": "struct Todos.Todo[]",
          "name": "",
          "type": "tuple[]"
        }
      ],
      "stateMutability": "view",
      "type": "function"
    }
  ],
  "bytecode": "0x608060405234801561001057600080fd5b50610d5f806100206000396000f3fe608060405234801561001057600080fd5b50600436106100625760003560e01c80630951e5bd1461006757806353ed5143146100835780639507d39a146100a1578063b6a46b3b146100d2578063bc8bc2b4146100ee578063f745630f1461011f575b600080fd5b610081600480360381019061007c919061057e565b61013b565b005b61008b610192565b6040516100989190610755565b60405180910390f35b6100bb60048036038101906100b6919061057e565b61029e565b6040516100c99291906107d0565b60405180910390f35b6100ec60048036038101906100e79190610865565b610373565b005b6101086004803603810190610103919061057e565b610436565b6040516101169291906107d0565b60405180910390f35b610139600480360381019061013491906108b2565b6104ff565b005b60008082815481106101505761014f610912565b5b906000526020600020906002020190508060010160009054906101000a900460ff16158160010160006101000a81548160ff0219169083151502179055505050565b60606000805480602002602001604051908101604052809291908181526020016000905b8282101561029557838290600052602060002090600202016040518060400160405290816000820180546101e990610970565b80601f016020809104026020016040519081016040528092919081815260200182805461021590610970565b80156102625780601f1061023757610100808354040283529160200191610262565b820191906000526020600020905b81548152906001019060200180831161024557829003601f168201915b505050505081526020016001820160009054906101000a900460ff161515151581525050815260200190600101906101b6565b50505050905090565b6060600080600084815481106102b7576102b6610912565b5b90600052602060002090600202019050806000018160010160009054906101000a900460ff168180546102e990610970565b80601f016020809104026020016040519081016040528092919081815260200182805461031590610970565b80156103625780601f1061033757610100808354040283529160200191610362565b820191906000526020600020905b81548152906001019060200180831161034557829003601f168201915b505050505091509250925050915091565b6000604051806040016040528084848080601f016020809104026020016040519081016040528093929190818152602001838380828437600081840152601f19601f820116905080830192505050505050508152602001600015158152509080600181540180825580915050600190039060005260206000209060020201600090919091909150600082015181600001908161040f9190610b7c565b5060208201518160010160006101000a81548160ff02191690831515021790555050505050565b6000818154811061044657600080fd5b906000526020600020906002020160009150905080600001805461046990610970565b80601f016020809104026020016040519081016040528092919081815260200182805461049590610970565b80156104e25780601f106104b7576101008083540402835291602001916104e2565b820191906000526020600020905b8154815290600101906020018083116104c557829003601f168201915b5050505050908060010160009054906101000a900460ff16905082565b600080848154811061051457610513610912565b5b906000526020600020906002020190508282826000019182610537929190610c59565b5050505050565b600080fd5b600080fd5b6000819050919050565b61055b81610548565b811461056657600080fd5b50565b60008135905061057881610552565b92915050565b6000602082840312156105945761059361053e565b5b60006105a284828501610569565b91505092915050565b600081519050919050565b600082825260208201905092915050565b6000819050602082019050919050565b600081519050919050565b600082825260208201905092915050565b60005b838110156106115780820151818401526020810190506105f6565b60008484015250505050565b6000601f19601f8301169050919050565b6000610639826105d7565b61064381856105e2565b93506106538185602086016105f3565b61065c8161061d565b840191505092915050565b60008115159050919050565b61067c81610667565b82525050565b6000604083016000830151848203600086015261069f828261062e565b91505060208301516106b46020860182610673565b508091505092915050565b60006106cb8383610682565b905092915050565b6000602082019050919050565b60006106eb826105ab565b6106f581856105b6565b935083602082028501610707856105c7565b8060005b85811015610743578484038952815161072485826106bf565b945061072f836106d3565b925060208a0199505060018101905061070b565b50829750879550505050505092915050565b6000602082019050818103600083015261076f81846106e0565b905092915050565b600082825260208201905092915050565b6000610793826105d7565b61079d8185610777565b93506107ad8185602086016105f3565b6107b68161061d565b840191505092915050565b6107ca81610667565b82525050565b600060408201905081810360008301526107ea8185610788565b90506107f960208301846107c1565b9392505050565b600080fd5b600080fd5b600080fd5b60008083601f84011261082557610824610800565b5b8235905067ffffffffffffffff81111561084257610841610805565b5b60208301915083600182028301111561085e5761085d61080a565b5b9250929050565b6000806020838503121561087c5761087b61053e565b5b600083013567ffffffffffffffff81111561089a57610899610543565b5b6108a68582860161080f565b92509250509250929050565b6000806000604084860312156108cb576108ca61053e565b5b60006108d986828701610569565b935050602084013567ffffffffffffffff8111156108fa576108f9610543565b5b6109068682870161080f565b92509250509250925092565b7f4e487b7100000000000000000000000000000000000000000000000000000000600052603260045260246000fd5b7f4e487b7100000000000000000000000000000000000000000000000000000000600052602260045260246000fd5b6000600282049050600182168061098857607f821691505b60208210810361099b5761099a610941565b5b50919050565b7f4e487b7100000000000000000000000000000000000000000000000000000000600052604160045260246000fd5b60008190508160005260206000209050919050565b60006020601f8301049050919050565b600082821b905092915050565b600060088302610a327fffffffffffffffffffffffffffffffffffffffffffffffffffffffffffffffff826109f5565b610a3c86836109f5565b95508019841693508086168417925050509392505050565b6000819050919050565b6000610a79610a74610a6f84610548565b610a54565b610548565b9050919050565b6000819050919050565b610a9383610a5e565b610aa7610a9f82610a80565b848454610a02565b825550505050565b600090565b610abc610aaf565b610ac7818484610a8a565b505050565b5b81811015610aeb57610ae0600082610ab4565b600181019050610acd565b5050565b601f821115610b3057610b01816109d0565b610b0a846109e5565b81016020851015610b19578190505b610b2d610b25856109e5565b830182610acc565b50505b505050565b600082821c905092915050565b6000610b5360001984600802610b35565b1980831691505092915050565b6000610b6c8383610b42565b9150826002028217905092915050565b610b85826105d7565b67ffffffffffffffff811115610b9e57610b9d6109a1565b5b610ba88254610970565b610bb3828285610aef565b600060209050601f831160018114610be65760008415610bd4578287015190505b610bde8582610b60565b865550610c46565b601f198416610bf4866109d0565b60005b82811015610c1c57848901518255600182019150602085019450602081019050610bf7565b86831015610c395784890151610c35601f891682610b42565b8355505b6001600288020188555050505b505050505050565b600082905092915050565b610c638383610c4e565b67ffffffffffffffff811115610c7c57610c7b6109a1565b5b610c868254610970565b610c91828285610aef565b6000601f831160018114610cc05760008415610cae578287013590505b610cb88582610b60565b865550610d20565b601f198416610cce866109d0565b60005b82811015610cf657848901358255600182019150602085019450602081019050610cd1565b86831015610d135784890135610d0f601f891682610b42565b8355505b6001600288020188555050505b5050505050505056fea2646970667358221220b2e4545c4ef1014e51d32b5857fec0d6a7bbc8ca87922d036cfe99ea593178a364736f6c63430008110033",
  "immutableReferences": {},
  "source": "// 4cb8f5e0-6075-4cc3-859e-734c49405af7\n\npragma solidity >=0.8.17;\n\ncontract Todos {\n    struct Todo {\n        string text;\n        bool completed;\n    }\n\n    Todo[] public todos;\n\n    function create(string calldata _text) public {\n        todos.push(Todo(_text, false));\n    }\n\n    function get(uint256 _index)\n        public\n        view\n        returns (string memory text, bool complted)\n    {\n        Todo storage todo = todos[_index];\n        return (todo.text, todo.completed);\n    }\n\n    function update(uint256 _index, string calldata _text) public {\n        Todo storage todo = todos[_index];\n        todo.text = _text;\n    }\n\n    function toggleComplete(uint256 _index) public {\n        Todo storage todo = todos[_index];\n        todo.completed = !todo.completed;\n    }\n\n    function getAll() public view returns (Todo[] memory) {\n        return todos;\n    }\n}\n",
  "sourcePath": "/home/ctp/Desktop/blockchain/solidity/truffle/contracts/todo.sol",
  "compiler": {
    "name": "solc",
    "version": "0.8.17+commit.8df45f5f.Emscripten.clang"
  },
  "schemaVersion": "3.4.11",
  "updatedAt": "2023-02-11T23:49:56.974Z",
  "devdoc": {
    "kind": "dev",
    "methods": {},
    "version": 1
  },
  "userdoc": {
    "kind": "user",
    "methods": {},
    "version": 1
  }
}