{
  "contractName": "ZombieFactory",
  "abi": [
    {
      "anonymous": false,
      "inputs": [
        {
          "indexed": false,
          "internalType": "uint256",
          "name": "zombieId",
          "type": "uint256"
        },
        {
          "indexed": false,
          "internalType": "string",
          "name": "name",
          "type": "string"
        },
        {
          "indexed": false,
          "internalType": "uint256",
          "name": "dna",
          "type": "uint256"
        }
      ],
      "name": "NewZombie",
      "type": "event"
    },
    {
      "inputs": [
        {
          "internalType": "uint256",
          "name": "",
          "type": "uint256"
        }
      ],
      "name": "zombieToOwner",
      "outputs": [
        {
          "internalType": "address",
          "name": "",
          "type": "address"
        }
      ],
      "stateMutability": "view",
      "type": "function"
    },
    {
      "inputs": [
        {
          "internalType": "uint256",
          "name": "",
          "type": "uint256"
        }
      ],
      "name": "zombies",
      "outputs": [
        {
          "internalType": "string",
          "name": "name",
          "type": "string"
        },
        {
          "internalType": "uint256",
          "name": "dna",
          "type": "uint256"
        }
      ],
      "stateMutability": "view",
      "type": "function"
    },
    {
      "inputs": [
        {
          "internalType": "string",
          "name": "_name",
          "type": "string"
        }
      ],
      "name": "createRandomZombie",
      "outputs": [],
      "stateMutability": "nonpayable",
      "type": "function"
    }
  ],
  "bytecode": "0x60806040526010600055600054600a6200001a9190620001be565b6001553480156200002a57600080fd5b506200020f565b7f4e487b7100000000000000000000000000000000000000000000000000000000600052601160045260246000fd5b60008160011c9050919050565b6000808291508390505b6001851115620000bf5780860481111562000097576200009662000031565b5b6001851615620000a75780820291505b8081029050620000b78562000060565b945062000077565b94509492505050565b600082620000da5760019050620001ad565b81620000ea5760009050620001ad565b81600181146200010357600281146200010e5762000144565b6001915050620001ad565b60ff84111562000123576200012262000031565b5b8360020a9150848211156200013d576200013c62000031565b5b50620001ad565b5060208310610133831016604e8410600b84101617156200017e5782820a90508381111562000178576200017762000031565b5b620001ad565b6200018d84848460016200006d565b92509050818404811115620001a757620001a662000031565b5b81810290505b9392505050565b6000819050919050565b6000620001cb82620001b4565b9150620001d883620001b4565b9250620002077fffffffffffffffffffffffffffffffffffffffffffffffffffffffffffffffff8484620000c8565b905092915050565b610ba7806200021f6000396000f3fe608060405234801561001057600080fd5b50600436106100415760003560e01c80632052465e14610046578063528b7b8f146100775780637bff0a01146100a7575b600080fd5b610060600480360381019061005b9190610421565b6100c3565b60405161006e9291906104ed565b60405180910390f35b610091600480360381019061008c9190610421565b61017f565b60405161009e919061055e565b60405180910390f35b6100c160048036038101906100bc91906106ae565b6101b2565b005b600281815481106100d357600080fd5b90600052602060002090600202016000915090508060000180546100f690610726565b80601f016020809104026020016040519081016040528092919081815260200182805461012290610726565b801561016f5780601f106101445761010080835404028352916020019161016f565b820191906000526020600020905b81548152906001019060200180831161015257829003601f168201915b5050505050908060010154905082565b60036020528060005260406000206000915054906101000a900473ffffffffffffffffffffffffffffffffffffffff1681565b6000600460003373ffffffffffffffffffffffffffffffffffffffff1673ffffffffffffffffffffffffffffffffffffffff16815260200190815260200160002054146101fe57600080fd5b600061020982610233565b90506064816102189190610786565b8161022391906107e6565b905061022f8282610278565b5050565b600080826040516020016102479190610856565b6040516020818303038152906040528051906020012060001c9050600154816102709190610786565b915050919050565b6002604051806040016040528084815260200183815250908060018154018082558091505060019003906000526020600020906002020160009091909190915060008201518160000190816102cd9190610a19565b50602082015181600101555050600060016002805490506102ee91906107e6565b9050336003600083815260200190815260200160002060006101000a81548173ffffffffffffffffffffffffffffffffffffffff021916908373ffffffffffffffffffffffffffffffffffffffff160217905550600460003373ffffffffffffffffffffffffffffffffffffffff1673ffffffffffffffffffffffffffffffffffffffff168152602001908152602001600020600081548092919061039290610aeb565b91905055507f88f026aacbbecc90c18411df4b1185fd8d9be2470f1962f192bf84a27d0704b78184846040516103ca93929190610b33565b60405180910390a1505050565b6000604051905090565b600080fd5b600080fd5b6000819050919050565b6103fe816103eb565b811461040957600080fd5b50565b60008135905061041b816103f5565b92915050565b600060208284031215610437576104366103e1565b5b60006104458482850161040c565b91505092915050565b600081519050919050565b600082825260208201905092915050565b60005b8381101561048857808201518184015260208101905061046d565b60008484015250505050565b6000601f19601f8301169050919050565b60006104b08261044e565b6104ba8185610459565b93506104ca81856020860161046a565b6104d381610494565b840191505092915050565b6104e7816103eb565b82525050565b6000604082019050818103600083015261050781856104a5565b905061051660208301846104de565b9392505050565b600073ffffffffffffffffffffffffffffffffffffffff82169050919050565b60006105488261051d565b9050919050565b6105588161053d565b82525050565b6000602082019050610573600083018461054f565b92915050565b600080fd5b600080fd5b7f4e487b7100000000000000000000000000000000000000000000000000000000600052604160045260246000fd5b6105bb82610494565b810181811067ffffffffffffffff821117156105da576105d9610583565b5b80604052505050565b60006105ed6103d7565b90506105f982826105b2565b919050565b600067ffffffffffffffff82111561061957610618610583565b5b61062282610494565b9050602081019050919050565b82818337600083830152505050565b600061065161064c846105fe565b6105e3565b90508281526020810184848401111561066d5761066c61057e565b5b61067884828561062f565b509392505050565b600082601f83011261069557610694610579565b5b81356106a584826020860161063e565b91505092915050565b6000602082840312156106c4576106c36103e1565b5b600082013567ffffffffffffffff8111156106e2576106e16103e6565b5b6106ee84828501610680565b91505092915050565b7f4e487b7100000000000000000000000000000000000000000000000000000000600052602260045260246000fd5b6000600282049050600182168061073e57607f821691505b602082108103610751576107506106f7565b5b50919050565b7f4e487b7100000000000000000000000000000000000000000000000000000000600052601260045260246000fd5b6000610791826103eb565b915061079c836103eb565b9250826107ac576107ab610757565b5b828206905092915050565b7f4e487b7100000000000000000000000000000000000000000000000000000000600052601160045260246000fd5b60006107f1826103eb565b91506107fc836103eb565b9250828203905081811115610814576108136107b7565b5b92915050565b600081905092915050565b60006108308261044e565b61083a818561081a565b935061084a81856020860161046a565b80840191505092915050565b60006108628284610825565b915081905092915050565b60008190508160005260206000209050919050565b60006020601f8301049050919050565b600082821b905092915050565b6000600883026108cf7fffffffffffffffffffffffffffffffffffffffffffffffffffffffffffffffff82610892565b6108d98683610892565b95508019841693508086168417925050509392505050565b6000819050919050565b600061091661091161090c846103eb565b6108f1565b6103eb565b9050919050565b6000819050919050565b610930836108fb565b61094461093c8261091d565b84845461089f565b825550505050565b600090565b61095961094c565b610964818484610927565b505050565b5b818110156109885761097d600082610951565b60018101905061096a565b5050565b601f8211156109cd5761099e8161086d565b6109a784610882565b810160208510156109b6578190505b6109ca6109c285610882565b830182610969565b50505b505050565b600082821c905092915050565b60006109f0600019846008026109d2565b1980831691505092915050565b6000610a0983836109df565b9150826002028217905092915050565b610a228261044e565b67ffffffffffffffff811115610a3b57610a3a610583565b5b610a458254610726565b610a5082828561098c565b600060209050601f831160018114610a835760008415610a71578287015190505b610a7b85826109fd565b865550610ae3565b601f198416610a918661086d565b60005b82811015610ab957848901518255600182019150602085019450602081019050610a94565b86831015610ad65784890151610ad2601f8916826109df565b8355505b6001600288020188555050505b505050505050565b6000610af6826103eb565b91507fffffffffffffffffffffffffffffffffffffffffffffffffffffffffffffffff8203610b2857610b276107b7565b5b600182019050919050565b6000606082019050610b4860008301866104de565b8181036020830152610b5a81856104a5565b9050610b6960408301846104de565b94935050505056fea2646970667358221220a9ab9ceda12c7ce3bc0180a314c889a5cd27381a0ecedbcc0550787ab3ef2e2964736f6c63430008110033",
  "immutableReferences": {},
  "source": "// SPDX-License-Identifier: MIT\npragma solidity ^0.8.17;\n\ncontract ZombieFactory {\n    event NewZombie(uint256 zombieId, string name, uint256 dna);\n\n    uint256 dnaDigits = 16;\n    uint256 dnaModulus = 10**dnaDigits;\n\n    struct Zombie {\n        string name;\n        uint256 dna;\n    }\n\n    Zombie[] public zombies;\n\n    mapping(uint256 => address) public zombieToOwner;\n    mapping(address => uint256) ownerZombieCount;\n\n    function _createZombie(string memory _name, uint256 _dna) internal {\n        zombies.push(Zombie(_name, _dna));\n        uint256 id = zombies.length - 1;\n        zombieToOwner[id] = msg.sender;\n        ownerZombieCount[msg.sender]++;\n        emit NewZombie(id, _name, _dna);\n    }\n\n    function _generateRandomDna(string memory _str)\n        private\n        view\n        returns (uint256)\n    {\n        uint256 rand = uint256(keccak256(abi.encodePacked(_str)));\n        return rand % dnaModulus;\n    }\n\n    function createRandomZombie(string memory _name) public {\n        require(ownerZombieCount[msg.sender] == 0);\n        uint256 randDna = _generateRandomDna(_name);\n        randDna = randDna - (randDna % 100);\n        _createZombie(_name, randDna);\n    }\n}\n",
  "sourcePath": "/home/ctp/Desktop/blockchain/solidity/truffle/contracts/zombiefactory.sol",
  "compiler": {
    "name": "solc",
    "version": "0.8.17+commit.8df45f5f.Emscripten.clang"
  },
  "schemaVersion": "3.4.11",
  "updatedAt": "2023-01-27T07:13:55.360Z",
  "devdoc": {
    "kind": "dev",
    "methods": {},
    "version": 1
  },
  "userdoc": {
    "kind": "user",
    "methods": {},
    "version": 1
  }
}